:040000008031F6282D
:10000800803120007F08B5001508AD002D08D40008
:100018000B1D17280130D6070030D73D0030D83DDA
:100028000030D93D0B11911CB9280130AD002D08C5
:10003800D20714305202031C8F2802305006031DC9
:100048008F280030A3000030A2002730A100103014
:10005800A0005408AD00AE01AF01B0015608B100D0
:100068005708B2005808B3005908B4000830B13531
:10007800B20DB30DB40D890B3B283108AD0732081A
:10008800AE3D3308AF3D3408B03D3008F3002F08CB
:10009800F2002E08F1002D08F0000030F7000030C3
:1000A800F6002630F500FA30F400843194248031CB
:1000B80073082000A7007208A6007108A500700840
:1000C800A400833174238031200023082100C90053
:1000D800200022082100C800200021082100C700B4
:1000E800200020082100C6002000D0010130AD000A
:1000F8002D08D100D20122000E0E01392000AD00DA
:100108000130AD06AD0E22000E0820002D06EF3995
:100118002D0622008E002000440845040319982863
:100128000130C4020030C53B460847040319A02823
:100138000130C6020030C73B480849040319A82803
:100148000130C8020030C93B4A084B040319B028E3
:100158000130CA020030CB3B4C084D040319B828C3
:100168000130CC020030CD3B9110111CDB28FF3050
:10017800970006309600FD3097008F309600FF30CC
:100188009700960122000E0E2000AD002D0C0139BB
:10019800AD000130AD06AD0EAD0D22000E082000F9
:1001A8002D06DF392D0622008E00200011100B1CB1
:1001B800F2282700961EF02820005308031DF02877
:1001C8000430AD002D08CF00E830C4000330C5006E
:1001D8000130AD002D08D300270096012000350816
:1001E800FF0009008031F828F030840020308500B5
:1001F8000030FE000130FF00853109258031FD0106
:1002080044308400003085001630FE000030FF00C6
:10021800853109252100C601C701C801C90120008F
:1002280081311629210099111916991619171513D4
:10023800151095141511951595168B162000181480
:100248001812981218139813210011140B170E1571
:10025800F43020009B001C149C141C159C151C16C3
:100268009C161C1721000E1191148B1723000D10DA
:100278008D100D118D110D128D1221000D108D1084
:100288000D1122000D108D100D1123000C108C1073
:100298000C118C118C1221000C108C100C118C116B
:1002A8000C168C120C138C1322000C108C100C11D1
:1002B8008C110C128C120C138C1323008D1121003D
:1002C8008D1122008D1123000D128D1221000D12A7
:1002D8000D138D138D16951324008D162700951672
:1002E8008B1521008E0122008E0123008E01210032
:1002F8000E1723008C1221008C1222008C128431DC
:10030800FA2481312000CE0144084504031D9629B2
:100318001430C4000030C50015082100C500450888
:100328002000CE005008031DA2295108031DA22950
:1003380001302100C50045082000D0005003031DEE
:10034800CC293C30BC008430BD003C30B600843041
:10035800B7008431C3248131200036082100C5004C
:1003680045082000BE008431E2248131003020009D
:10037800D9000030D8000030D7000030D6009501F1
:100388009A01D20102302100C50045082000D000A2
:100398005103031D8829F0302100AA002030AB004A
:1003A8002830AC008430AD004908B1004808B000DE
:1003B8004708AF004608AE00823120228131F03074
:1003C8002000BC002030BD00F030B6002030B7005F
:1003D8008431C3248131200036082100C500450836
:1003E8002000BE008431E22481314C302000BC0062
:1003F8008430BD004C30B6008430B7008431C3244B
:100408008131200036082100C50045082000BE00C3
:100418008431E224813149302000BC008430BD00A1
:1004280002302100C50045082000BE008431E224C6
:1004380081312000D1018829AE302100B200320874
:10044800BF002D08B3002C08B200AC0A0319AD0A8E
:1004580032088400330885000008B4003408C0005E
:10046800400803191B2B253040060319462A2A0881
:1004780086002B088700400881000130AA07003059
:10048800AB3D252AB8014F2A38164F2AC030B20092
:100498003208B804662A2D08B3002C08B200AC0A4A
:1004A8000319AD0A32088400330885000008C0002B
:1004B800003A03191B2B6C3A0319482A193A0319F5
:1004C8004A2A252A381E752A3F0886008701403F98
:1004D800BB00413FBC00423FBD00433FBE0004306B
:1004E800832A3F0886008701403FB200413FB3009E
:1004F8003208BB003308BC00BD01BE010230B200A7
:100508003208BF07C001C00A0A3040060319B92AD9
:100518004008B200B301B235B30DB235B30D0030A7
:10052800320784008430333D8500003FB400013F2A
:10053800B500023FB600033FB70037083E02031D6F
:10054800AF2A36083D02031DAF2A35083C02031DB9
:10055800AF2A34083B02031CB92A0130B200320822
:10056800C0070A304006031D8C2A4008B900BA01AA
:10057800B91BBA03FF30B907FF30BA3D390A03196E
:100588003A0A0319252A0030A3000030A2000030DF
:10059800A1000A30A0003A08850039088400843593
:1005A800850D8435850D003084078430853D003FF6
:1005B8002000B600013FB700023FB800033FB90072
:1005C80021003E082000BD0021003D082000BC009D
:1005D80021003C082000BB0021003B082000BA0095
:1005E800833121238231200039082100A70020000F
:1005F80038082100A600200037082100A5002000A7
:1006080036082100A40084315124823121002008B9
:10061800303EB2003208C0002A0886002B08870046
:10062800400881000130AA070030AB3DBE2A2A08E5
:1006380086002B0887008101080000302000C200D6
:100648000030C1000030C0000030BF003908380455
:100658003704360403196B2BC301C30AB91B402B9B
:100668000130B635B70DB80DB90D890B352B0130F2
:10067800BE003E08C307322B0130BF35C00DC10D87
:10068800C20D890B412B39083D02031D552B380833
:100698003C02031D552B37083B02031D552B36081A
:1006A8003A02031C602B3608BA023708BB3B3808ED
:1006B800BC3B3908BD3B3F140130B936B80CB70C08
:1006C800B60C890B612B0130C302031D402B420875
:1006D800B9004108B8004008B7003F08B600080054
:1006E80000302000AB000030AA000030A900003024
:1006F800A80023082204210420040319BE2BAC01FE
:10070800AC0AA31B932B0130A035A10DA20DA30D9C
:10071800890B882B0130FC007C08AC07852B013045
:10072800A835A90DAA0DAB0D890B942B2308270218
:10073800031DA82B22082602031DA82B2108250229
:10074800031DA82B20082402031CB32B2008A40295
:100758002108A53B2208A63B2308A73B2814013003
:10076800A336A20CA10CA00C890BB42B0130AC024F
:10077800031D932B2B08A3002A08A2002908A10017
:060788002808A000080093
:1008000001340034003400340A340034003400343D
:100810006434003400340034E834033400340034E9
:100820001034273400340034A034863401340034CA
:10083000403442340F3400348034963498340034D9
:100840000034E134F53405340034CA349A343B348E
:1008500043347A346534733474346F3474346C34A0
:10086000693477346F34733463343A342034253444
:100870006C3475342034003453347434613472343D
:100880007434203470346F346D34693461347234AC
:1008900075340D340A3400342034203448347A342A
:1008A00000342100230822042104200403198B2C86
:1008B000A901A90AA31B682C0130A035A10DA20D26
:1008C000A30D890B5D2C0130A8002808A9075A2C1C
:1008D00023082702031D762C22082602031D762CEE
:1008E00021082502031D762C20082402031C802CDD
:1008F0002008A4022108A53B2208A63B2308A73B09
:100900000130A336A20CA10CA00C890B812C013064
:10091000A902031D682C2708A3002608A2002508A9
:10092000A1002408A00008000030FB000030FA00FD
:100930000030F9000030F800701CA62C7408F8078D
:100940007508F93D7608FA3D7708FB3D0130F4352E
:10095000F50DF60DF70D890BA72C0130F336F20CCF
:10096000F10CF00C890BAE2C730872047104700446
:10097000031D9C2C7B08F3007A08F2007908F10033
:100980007808F000080020003608BA003708BB00DD
:100990003A0884003B08850012000319D42C01306A
:1009A000BA070030BB3DC82C3609B8003709B9007A
:1009B000B80A0319B90A3A083807B6003B08393DA6
:1009C000B70008002000C0013E08400203180800DC
:1009D0003C0884003D0885000008853115258431D8
:1009E00001302000BC070030BD3D0130BF003F0892
:1009F000C007E42C23009F179E161E129D171E157C
:100A000033309B009C019F1508309B0002309C00F6
:100A100008006400800101310130FE020030FF3B1C
:100A20007F087E04031900340A2D2000B60023003D
:0E0A30009E1C172D2000360823009A00080097
:020000040001F9
:04000E00E2F9FFF71D
:00000001FF
